:100000000C94F6050C941E060C941E060C941E0609
:100010000C941E060C941E060C941E060C941E06D0
:100020000C941E060C941E060C94D20B0C94410CDE
:100030000C941E060C941E060C941E060C941E06B0
:100040000C941E060C941E060C941E060C941E06A0
:100050000C941E060C941E060C941E060C94730E33
:100060000C941E060C941E060C941E060C941E0680
:100070000C941E060C941E060C941E060C941E0670
:100080000C941E060C941E060C941E060C941E0660
:100090000C941E060C941E060C941E060C941E0650
:1000A0000C941E060C941E060C941E0605A84CCD3E
:1000B000B2D44EB93836A9020C50B9918688083CA2
:1000C000A6AAAA2ABE000000803F1F111F001F0021
:1000D0001D151715151F07041F17151D1F151D01C9
:1000E000011F1F151F17151F000A00180403000029
:1000F000001F051F1F150A0E11111F110E1F1511CC
:100100001F05010E111D1F041F111F1108100F1FC5
:10011000041B1F10101F021F1F021C0E110E1F05B3
:10012000020E131E1F051A121509011F010F100FD1
:100130000718071F081F1B041B031C0319151314A2
:10014000081400000000000000003E5B4F5B3E3ED4
:100150006B4F6B3E1C3E7C3E1C183C7E3C181C5773
:100160007D571C1C5E7F5E1C00183C1800FFE7C317
:10017000E7FF0018241800FFE7DBE7FF30483A06E6
:100180000E2629792926407F050507407F05253F52
:100190005A3CE73C5A7F3E1C1C08081C1C3E7F143E
:1001A000227F22145F5F005F5F06097F017F006688
:1001B00089956A606060606094A2FFA29408047EE2
:1001C000040810207E201008082A1C08081C2A0891
:1001D000081E101010100C1E0C1E0C30383E38304B
:1001E000060E3E0E06000000000000005F0000004A
:1001F00007000700147F147F14242A7F2A12231378
:1002000008646236495620500008070300001C228B
:1002100041000041221C002A1C7F1C2A08083E08BD
:1002200008008070300008080808080000606000BE
:1002300020100804023E5149453E00427F400072B2
:10024000494949462141494D331814127F10274529
:100250004545393C4A494931412111090736494947
:100260004936464949291E00001400000040340068
:10027000000008142241141414141400412214081C
:1002800002015909063E415D594E7C1211127C7FD4
:10029000494949363E414141227F4141413E7F49E2
:1002A0004949417F090909013E414151737F0808CD
:1002B000087F00417F41002040413F017F08142218
:1002C000417F404040407F021C027F7F0408107F36
:1002D0003E4141413E7F090909063E4151215E7F71
:1002E00009192946264949493203017F01033F4044
:1002F00040403F1F2040201F3F4038403F631408CC
:10030000146303047804036159494D43007F41415C
:10031000410204081020004141417F04020102040F
:100320004040404040000307080020545478407F7C
:10033000284444383844444428384444287F3854B6
:1003400054541800087E090218A4A49C787F08045D
:10035000047800447D40002040403D007F10284448
:100360000000417F40007C047804787C0804047815
:100370003844444438FC1824241818242418FC7CDD
:1003800008040408485454542404043F44243C40C2
:1003900040207C1C2040201C3C4030403C44281025
:1003A00028444C9090907C4464544C44000836415E
:1003B000000000770000004136080002010204023C
:1003C0003C2623263C1EA1A161123A4040207A38E7
:1003D000545455592155557941215454784121554A
:1003E00054784020545579400C1E5272123955559C
:1003F0005559395454545939555454580000457C72
:10040000410002457D420001457C40F0292429F04D
:10041000F0282528F07C545545002054547C547C09
:100420000A097F4932494949323248484832324AFA
:100430004848303A4141217A3A42402078009DA014
:10044000A07D39444444393D4040403D3C24FF2494
:1004500024487E4943662B2FFC2F2BFF0929F620C9
:10046000C0887E090320545479410000447D413006
:1004700048484A32384040227A007A0A0A727D0D92
:1004800019317D2629292F28262929292630484D4A
:100490004020380808080808080808382F10C8AC99
:1004A000BA2F102834FA00007B000008142A142206
:1004B00022142A14089500220095AA005500AAAA21
:1004C00055AA55AA000000FF00101010FF001414D8
:1004D00014FF001010FF00FF1010F010F01414149F
:1004E000FC001414F700FF0000FF00FF1414F404D4
:1004F000FC141417101F10101F101F1414141F00C9
:10050000101010F0000000001F101010101F10102D
:100510001010F010000000FF10101010101010103C
:1005200010FF10000000FF140000FF00FF00001F7C
:1005300010170000FC04F414141710171414F4041A
:10054000F40000FF00F714141414141414F700F747
:10055000141414171410101F101F141414F4141072
:1005600010F010F000001F101F0000001F1400000A
:1005700000FC140000F010F01010FF10FF14141411
:10058000FF141010101F00000000F010FFFFFFFF0D
:10059000FFF0F0F0F0F0FFFFFF0000000000FFFFB1
:1005A0000F0F0F0F0F38444438447C2A2A3E147E24
:1005B00002020606027E027E026355494163384408
:1005C000443C04407E201E2006027E020299A5E7DC
:1005D000A5991C2A492A1C4C7201724C304A4D4D77
:1005E000303048784830BC625A463D3E494949005F
:1005F0007E0101017E2A2A2A2A2A44445F4444407B
:10060000514A444040444A51400000FF0103E08009
:10061000FF000008086B6B083612362436060F09F7
:100620000F06000018180000001010003040FF01F5
:1006300001001F01011E00191D1712003C3C3C3C2B
:100640000000000000F0F89C8E8783878E9CF8F0F5
:100650000000FEFF0303030303070EFCF80000FE87
:10066000FF0303030303070EFCF80000FFFF000075
:100670000000000000FFFF0000FEFF8383838383F0
:10068000C7EE7C380000F8FC0E07030303070EFCDE
:10069000F800003F7FE0C08080C0E07F3FFFFF01A7
:1006A000010101010101FFFF0000FFFF0C0C0C0C18
:1006B0001C3E77E3C100007FFFC0C0C0C0C0E07037
:1006C0003F1F00001F3F70E0C0C0C0E0703F1F0030
:1006D000007FFFC1C1C1C1C1E3773E1C00001F3FC5
:1006E00070E0C0C0C0E0703F1F000000000001FFCC
:1006F000FF01000000D5F08D14A1C881CFD9F1AF62
:100700002000414345004D41580044524900535098
:100710004400424F5400505245535320544F2045FB
:100720004E4400544845204C45414755452100431F
:100730004F4E47524154554C4154494F4E53204619
:100740004F522046494E495348494E47005345525F
:1007500049455320454E445320494E204120544999
:10076000452100504C4159455220322049532043E5
:1007700048414D50494F4E2100504C41594552205F
:1007800031204953204348414D50494F4E21005399
:10079000455249455320434F4D504C455445210047
:1007A000413A20434F4E54494E5545202020423A6D
:1007B000205245545259003E005052455353204157
:1007C00020544F204E45585400544945205241432F
:1007D000452100504C4159455220322057494E5333
:1007E0002100504C4159455220312057494E532148
:1007F000005241434520524553554C5400505245F8
:100800005353204120544F20535441525400504CD4
:1008100041594552203200505245535320412054F3
:100820004F2053544152540046494E495348454481
:1008300000572D602D602D6825682568206820628E
:100840001A621A5D1A5D1A5126512628262826207A
:100850001E201E201420141E121E121B121B121604
:1008600017161716251625202F202F2D2F2D2F3246
:100870002A322A4F2A4F2A532E532E5F2E37403CBE
:100880003B3C3B453B453B4C3F4C3F703F703F7FC3
:10089000307F307F0F7F0F6F006F00550055004194
:1008A0001441143C143C14370F370F370837082F06
:1008B000002F000D000D00000E000E003100310F62
:1008C0003F0F3F393F000607000700790079007F9E
:1008D000077F077F3A7F3A7A3F7A3F073F073F001B
:1008E000380038000641302B302B301F241F241FC6
:1008F000171F17270F270F420F663E6E366E366E94
:100900002B6E2B621F621F421F421F621F621F6DF0
:10091000146D146D086D086500021B1E001E00603A
:100920000060007F1F7F1F7F2A7F2A6A3F6A3F1572
:100930003F153F002A002A001D001D031A252B2009
:1009400026202620212021360B360B460B460B5A3B
:100950001F5A1F5A265A26542C542C262C262C2437
:100960002A303F36393639483948394E3F532D57AA
:1009700031573160316031662B662B6626662663FF
:100980002363235B23000707000700390039003C7D
:10099000033C033C1B3C1B3E1D3E1D3F1C3F1C3FBC
:1009A000033F0343004300780078007F077F077F01
:1009B000397F39793F793F073F073F0038003800DA
:1009C000071C1B1C221C22262C262C5E2C5E2C664F
:1009D0002466246614661463112C3F243F243F1DB3
:1009E0003F1D3F01230123011101111101110127B5
:1009F00001270137113711411141114D054D056393
:100A00000563057C1E7C1E7C2E7C2E6B3F6B3F2C71
:100A10003F22212C2B2C2B2F2E2F2E4A2E4A2E57A5
:100A200021000C0D000D002A002A00380E380E4857
:100A30000E480E540254026D026D027F147F147F23
:100A4000317F316F3F6F3F173F173F0F3F0F3F0021
:100A5000300030000C4B29222922291F261F261F77
:100A6000201F20221D221D271D271D2A202A205439
:100A70002054205C185C18651865186B1E6B1E6B83
:100A8000236B23652965294B290701790179017FAA
:100A9000077F077F397F39793F793F073F073F015C
:100AA00039013901070107070126165A165A16603F
:100AB0001C601C602460245A2A5A2A262A262A20CE
:100AC000242024201C201C2616505245535320411C
:100AD0004E5920425554544F4E00414343454C45D6
:100AE0005241544520412C20445249465420420052
:100AF0003E0053454C454354204C4556454C00550B
:100B0000502F444E3A2043484F4F53452020413AFE
:100B1000204E45585400454E54455220494E4954A4
:100B200049414C53003E004C4556454C2053454CE2
:100B3000454354003220504C415945520031205019
:100B40004C415945520053454C454354204D4F4468
:100B50004500505245535320414E5920425554545C
:100B60004F4E0044524946544552004D4F544F4455
:100B7000524F4D4500080B0002020200000904001C
:100B800000010202000005240010010524010101FA
:100B90000424020605240600010705810310004015
:100BA00009040100020A00000007050202400000DB
:100BB000070583024000000403090412010002EF4C
:100BC00002014041233680000101020301417264A9
:100BD00075696E6F204C4C430041726475696E6F8D
:100BE000204C656F6E6172646F00F00E11241FBEA1
:100BF000CFEFDAE0DEBFCDBF11E0A0E0B1E0E6E18B
:100C0000FAE402C005900D92AC35B107D9F727E0A0
:100C1000ACE5B1E001C01D92AE31B207E1F715E0DD
:100C2000C6EFD5E004C02197FE010E940325C53F11
:100C3000D107C9F70E940D0F0C9409250C940000F0
:100C4000EAECF2E0A0E0B8E000800EBC8111012CDB
:100C50001197A0FDFDCF0192B9F70DB40895FC01E5
:100C60008091C902882311F13FB7F89482E0809304
:100C7000E9002091F200822F90E01816190614F472
:100C800081E090E0882339F0289844E64093C80238
:100C90004091F1004083222339F02091F20021118C
:100CA00003C02BE62093E8003FBF08958FEF9FEF2E
:100CB00008952FB7F89483E08093E9009091E800BD
:100CC000892F807295FF04C09091F20080E4891B07
:100CD0002FBF08958091C00281110DC082E08093E2
:100CE000BC0284E08093BD021092BF021092BE024B
:100CF00081E08093C0028CEB92E00895CF93DF9364
:100D00001F92CDB7DEB76983DC01ED91FC910280C3
:100D1000F381E02D41E050E0BE016F5F7F4F099508
:100D20000F90DF91CF91089583E08093E900809147
:100D3000F200882319F08AE38093E80008950E9466
:100D4000590690E00895CF93DF931F92CDB7DEB799
:100D5000FC018485958597FD08C02FEF3FEF35870F
:100D600024870F90DF91CF910895CE0101960E94C4
:100D70002F06019719F4898190E0F3CF8FEF9FEF51
:100D8000F0CF0F931F93CF93DF931F92CDB7DEB7B2
:100D90008C01FC018485958597FF0BC0CE010196DF
:100DA0000E942F06019771F4898190E0F8019587E0
:100DB0008487F801848595850F90DF91CF911F91ED
:100DC0000F9108958FEF9FEFF1CFFC0184859585FA
:100DD00097FD0BC09FB7F89482E08093E900809163
:100DE000F2009FBF90E0019608959FB7F89482E0CB
:100DF0008093E9008091F2009FBF90E008954091B8
:100E0000B6025091B7022091B4023091B502421758
:100E10005307B4F49091E8009570E1F39091E800E5
:100E200092FD19C08093F1008091B6029091B702B3
:100E300001968F739927892B19F48EEF8093E80020
:100E40008091B6029091B70201969093B702809379
:100E5000B60281E0089580E00895DF92EF92FF925C
:100E60000F931F93CF93DF93D82E8A01EB017B0161
:100E7000E40EF51ECE15DF0559F0D7FE12C0FE01B7
:100E800084910E94FF0621968111F4CF0FEF1FEF8E
:100E9000C801DF91CF911F910F91FF90EF90DF90EC
:100EA00008958881EECF0F931F93CF93DF931F9206
:100EB000CDB7DEB782E0898342E450E065E77BE0AE
:100EC00080E80E942D070E946A06DC0112960D91AF
:100ED0001C910115110589F0D801ED91FC9102805A
:100EE000F381E02DBE016F5F7F4FC801099597FD2B
:100EF00004C0F80100851185ECCF89810F90DF9146
:100F0000CF911F910F910895615030F02091F10021
:100F1000FC0120830196F8CF289884E68093C802CC
:100F200008953FB7F8948091B0029091B102A091DA
:100F3000B202B091B30226B5A89B05C02F3F19F0AD
:100F40000196A11DB11D3FBFBA2FA92F982F882749
:100F5000BC01CD01620F711D811D911D42E0660F24
:100F6000771F881F991F4A95D1F708958F929F92F6
:100F7000AF92BF92CF92DF92EF92FF926B017C0112
:100F80000E9491074B015C01C114D104E104F104FA
:100F9000B9F00E949107681979098A099B09683E8E
:100FA00073408105910580F321E0C21AD108E10860
:100FB000F10888EE880E83E0981EA11CB11CE4CFD6
:100FC000FF90EF90DF90CF90BF90AF909F908F9069
:100FD00008958F929F92AF92BF92CF92DF92EF923D
:100FE000FF920F931F93CF93DF936C017B018A01D4
:100FF00080912701882309F45CC08091C90288236D
:1010000009F457C08091BB0280FF05C08091E000C9
:1010100082608093E000E801B12C8AEFA82E93E073
:10102000892E2AE3922E209711F4BB20D9F10E9439
:10103000590681110AC0AA94AA20D9F161E070E092
:1010400080E090E00E94B607EECF8C171D0611F0ED
:101050000CF08C2F9FB7F8948092E9002091E80063
:1010600025FD02C09FBFDFCF282F30E0C21BD30B6E
:10107000F701815020F041914093F100FACFE20E48
:10108000F31EBB2021F09092E800B12CEBCF8091B1
:10109000E80085FDE7CF9092E800BB24B394209749
:1010A00009F3F3CF5D9884E68093BA021016110617
:1010B0003CF081E090E0F6019383828310E000E051
:1010C000C801DF91CF911F910F91FF90EF90DF90BA
:1010D000CF90BF90AF909F908F900895AF92BF92A6
:1010E000CF92DF92EF92FF920F931F93CF93DF93F4
:1010F0006C017B018B01040F151FEB015E01AE1823
:10110000BF08C017D10759F06991D601ED91FC9144
:101110000190F081E02DC6010995892B79F7C50171
:10112000DF91CF911F910F91FF90EF90DF90CF90C3
:10113000BF90AF9008952D9A0895BC0190E080E093
:101140000C94B6078FB18095807F669B88601C9B4E
:10115000846008959091A702982329F49091A802A1
:10116000982381E009F480E00895CF93C82F0E946E
:10117000A208982F9C2381E09C1380E0CF910895D2
:1011800080E00C94200680389105B8F46034710535
:10119000A0F420E191E061FD94E060FD990F62FD13
:1011A0009295687F269FD0011124A80FA653BD4FAA
:1011B0008C9140FF03C0892B8C93089590958923CF
:1011C000FBCF2F923F924F925F926F927F928F92BE
:1011D0009F92AF92BF92CF92DF92EF92FF920F93C6
:1011E0001F93CF93DF93EC018B017A016901C61A3B
:1011F000D70AD7FE03C0D194C194D10847018C1AF5
:101200009D0A97FE03C09194819491088C149D04CB
:1012100054F49E2D8F2D7901292F382F9C2F8D2F3F
:10122000E801092F182FEC16FD0654F4902F812F9A
:101230008901292F382F9C2F8D2FE701E92EF82EB9
:1012400017012C1A3D0A2901401A510A57FE03C002
:10125000519441945108310137FE03C08FEF681A51
:10126000780A759467948FEF021713070CF481E0E6
:10127000A82E880FBB08EC16FD06A4F041E0BE01C5
:10128000C8018C149D0414F0B801CE010E94C3085B
:101290006418750877FE04C00A0D1B1D620C731CD0
:1012A0002196E9CFDF91CF911F910F91FF90EF90A1
:1012B000DF90CF90BF90AF909F908F907F906F9076
:1012C0005F904F903F902F900895AF92BF92CF9232
:1012D000DF92EF92FF920F931F93CF93DF93EC0176
:1012E0007B015C0122E0A20EB11C6B0182E0C80E02
:1012F000D11CCA15DB05A9F08701C60121E4C2167D
:10130000D10414F080E490E00817190744F441E098
:10131000B801CE010E94C3080F5F1F4FEECF219688
:10132000E8CFDF91CF911F910F91FF90EF90DF9069
:10133000CF90BF90AF9008952F923F924F925F92BF
:101340006F927F928F929F92AF92BF92CF92DF92D5
:10135000EF92FF920F931F93CF93DF9300D000D0B3
:1013600000D01F92CDB7DEB76D30D9F030901B01A1
:101370004090A5025090A602832D90E09F838E831B
:101380006A3051F51092A4021092A30223E0880F54
:10139000991F2A95E1F7480E591E5092A6024092D5
:1013A000A50281E090E027960FB6F894DEBF0FBE4D
:1013B000CDBFDF91CF911F910F91FF90EF90DF9004
:1013C000CF90BF90AF909F908F907F906F905F90E5
:1013D0004F903F902F900895A090A302B090A40248
:1013E00095E0699FB0011124FB01EB5BFE4F3F01CB
:1013F0006501212CF5E02F1629F1C3010196F301B7
:10140000F491F9833C01420128E02A8389818170AB
:101410008D8310E000E00315D0F4F801EC0DFD1D04
:10142000FC83EB83F12CE12CE31470F4B4016E0D1A
:101430007F1D4D818B819C810E94C308FFEFEF1AB5
:10144000FF0AF2CF1982DFCF0F5F1F4FE4CF298150
:10145000269529838A8181508A83EE81FF818E0EB1
:101460009F1E8111D3CF2394CE0EDF1EF6E02F12E4
:10147000C1CFC501329C800D911D11249093A4020F
:101480008093A3028ECF0F931F93CF93DF938C0192
:10149000D0E0C0E0F801EC0FFD1F6491662341F03D
:1014A0008AE197E00E949C09892B11F02196F2CFE6
:1014B000CE01DF91CF911F910F9108954F925F92CE
:1014C0006F927F928F929F92AF92BF92CF92DF9254
:1014D000EF92FF92CF93DF9300D000D000D0CDB732
:1014E000DEB76B017C015E834D838CE3882E912CEB
:1014F000A12CB12CC701A50194010E94A62129832A
:101500003A834B835C839B01AC01A4E6B0E00E946C
:101510009B212B013C01C701B60128E532E040E0E8
:1015200050E00E94A621205DED81FE8120839AE09B
:10153000C92ED12CE12CF12C69817A818B819C817F
:10154000A70196010E94A621605DED81FE81618365
:101550008AE38283C301B20128E532E040E050E033
:101560000E94A621205DED81FE812383C301B2018B
:10157000A50194010E94A621CA01B901A701960103
:101580000E94A621605DED81FE816483158226960E
:101590000FB6F894DEBF0FBECDBFDF91CF91FF90A5
:1015A000EF90DF90CF90BF90AF909F908F907F9003
:1015B0006F905F904F9008958F929F92AF92BF92DD
:1015C000CF92DF92EF92FF920F931F93CF93DF930F
:1015D000EC016B0190ED940F9A3090F09AE04A3351
:1015E00079F09BE04F3261F08FEB840F9CEC8A31F5
:1015F00030F08FE9840F8A3108F03FC09CEA940FE5
:101600005E0183E0A80EB11C0AEC10E00C1B1D0B60
:1016100083E0989F000D111D1124F801EC0FFD1FB0
:10162000E491912C812CEE2EF12CC701082C02C0E4
:10163000959587950A94E2F780FF07C041E0B601CF
:10164000680D791DCE010E94C3088FEF881A980A91
:1016500085E08816910449F72196AC16BD06E9F697
:10166000DF91CF911F910F91FF90EF90DF90CF907E
:10167000BF90AF909F908F90089597E24E3309F4FA
:10168000BFCF9CE0BDCFEF92FF920F931F93CF93FC
:10169000DF93EC017B018A01F80144910F5F1F4F3A
:1016A000442331F0B701CE010E94DC0A2496F4CF26
:1016B000DF91CF911F910F91FF90EF900895EF92DE
:1016C000FF920F931F93CF93DF93EC017B018A016D
:1016D000F80141918F01442331F0B701CE010E94FE
:1016E000DC0A2496F5CFDF91CF911F910F91FF90E7
:1016F000EF900895089590E080E008950C9485217E
:10170000FF920F931F93CF93DF93EC01F62E088186
:101710001981C8010E948521F81621F06F2DC8019A
:101720000E948D21CE01DF91CF911F910F91FF90EB
:101730000895EF92FF920F931F93CF93DF9300D002
:10174000CDB7DEB78EE290E09A83898367E4CE015D
:1017500001960E94800B8FE290E09A8389836DE46A
:10176000CE0101960E94800B80E6E82E81E0F82EE3
:1017700000E310E01A830983F70161917F01CE0134
:1017800001960E94800B0F5F1F4F0834F1E01F0786
:1017900089F70F900F90DF91CF911F910F91FF90DC
:1017A000EF9008951F920F920FB60F9211248F930E
:1017B0009F938091E1009091E100937F9093E100ED
:1017C00083FF0FC01092E90091E09093EB0010921C
:1017D000EC0092E39093ED001092C90298E0909390
:1017E000F00082FF22C093E09093E9009091F20014
:1017F000992319F09AE39093E8009091BA02992303
:1018000041F09091BA0291509093BA02911101C0A7
:101810005D9A9091C802992341F09091C80291502D
:101820009093C802911101C0289A84FF18C080913A
:10183000E2008E7E81608093E2008091E1008F7EE5
:101840008093E1008091BB028E7E80618093BB0219
:101850009F918F910F900FBE0F901F90189580FF52
:10186000F7CF8091E2008E7E80618093E2008091CC
:10187000E1008E7E8093E1008091BB028E7E8160CC
:10188000E5CF1F920F920FB60F921124CF92DF92E5
:10189000EF92FF920F931F932F933F934F935F937A
:1018A0006F937F938F939F93AF93BF93EF93FF9328
:1018B000CF93DF93CDB7DEB76C97DEBFCDBF10926D
:1018C000E9008091E80083FF25C068E0CE014596DD
:1018D0000E94840782EF8093E8008D8987FF39C0DA
:1018E0009091E80090FFFCCF982F907609F034C1DA
:1018F0009E894F89588D2F89F88C911131C080387D
:1019000061F58091B9028093F1001092F1008EEFA1
:101910008093E8006C960FB6F894DEBF0FBECDBF83
:10192000DF91CF91FF91EF91BF91AF919F918F91F7
:101930007F916F915F914F913F912F911F910F91E7
:10194000FF90EF90DF90CF900F900FBE0F901F9001
:1019500018959EEF9093E800C7CF1092F100D5CF75
:10196000913059F48111D3CF4130510581F68091E6
:10197000B9028D7F8093B902CACF933049F48111A7
:10198000C6CF4130510519F68091B9028260F2CF7D
:10199000953041F48091E80080FFFCCF20682093CF
:1019A000E300B5CF963009F0A9C00B8D1C8D22E065
:1019B0001092E9001092B7021092B602F2122EC0F5
:1019C0001092B5021092B4020E9453071F8299E050
:1019D0009983FA8291E09E8390EA98879AEF99879B
:1019E0002091B6023091B702275F3F4F3C832B8393
:1019F0008D831092E9001092B7021092B6021093F4
:101A0000B5020093B40249E050E0BE016F5F7F4F22
:101A100080E00E942D070E94530779CF1093B502F2
:101A20000093B4020E946A06DC0112960D911C918B
:101A30000115110509F451C1D801ED91FC91048003
:101A4000F581E02DBE016B5E7F4FC80109950097BF
:101A500009F03EC1F80100851185EACFF3E0FF12DD
:101A60000EC08F89882309F440C0823061F440E8B9
:101A700060E189ED9BE00E94BD0E811148CF81E2BB
:101A80008093EB0047CF813029F440E86BE08DEC88
:101A90009BE0F1CF833099F70E946A06DC01129631
:101AA000ED90FC908E010F5F1F4F6801E114F1046F
:101AB00079F0D701ED91FC910680F781E02DB80116
:101AC000C7010995080F111DF701E084F184EECFDD
:101AD000D8011C92F60101900020E9F73197BF016F
:101AE0006C197D0940E0C601C6CF67EB7BE0FB01C6
:101AF000449150E080E80E942D0709CF973009F407
:101B0000BECF983021F481E08093F10000CF99306E
:101B100009F0FDCE837009F0B2CFE7E3F1E081E098
:101B200031E096E32191222371F08093E900309314
:101B3000EB00DF0111972C912093EC009093ED00C6
:101B40008F5F873079F78EE78093EA001092EA0082
:101B50008F898093C902DBCE8B8D9C8D1092E9001A
:101B60001092B7021092B6029093B5028093B4021D
:101B7000898D811192C08E899D89913A49F4813273
:101B800009F07DCF47E050E060E271E080E0B3CF44
:101B9000913209F074CF833269F48F89988DB0E067
:101BA000A0E080931C0190931D01A0931E01B093AF
:101BB0001F01ADCE803269F48091E80082FFFCCF36
:101BC00067E080E291E00E9484078BEF8093E80059
:101BD0009ECE823209F09BCE8F8980932701EEEF53
:101BE000FFE7859194918B3F9C4D51F1E0E0F8E047
:101BF0008091200190912101A0912201B0912301B7
:101C0000803B9440A105B105F1F48091270180FD4E
:101C10001AC0EE3F8AE0F80789F587E797E79183D6
:101C20008083809160008093B80288E19BE00FB6CA
:101C3000F894A895809360000FBE9093600067CEE3
:101C4000EEEFFAE0D5CF808191818737974709F091
:101C50005ECEA8958091600088618093600080913D
:101C6000B80280936000EE3F2AE0F20789F080918D
:101C7000FE0A9091FF0A9183808349CE80819181F1
:101C80008737980751F29093FF0A8093FE0AC5CFD9
:101C90001092FF0A1092FE0A3ACE0E946A06DC01F8
:101CA00012960D911C910115110509F4E8CED80189
:101CB000ED91FC910190F081E02DBE016B5E7F4FB4
:101CC000C8010995811123CEF80100851185EBCF5C
:101CD000181619060CF41BCED2CEF1E0FF12BECEC0
:101CE0006BEB7BE004CF1F920F920FB60F92112483
:101CF0002F933F938F939F93AF93BF938091AC02A9
:101D00009091AD02A091AE02B091AF023091AB02C2
:101D100023E0230F2D3758F50196A11DB11D209307
:101D2000AB028093AC029093AD02A093AE02B0934D
:101D3000AF028091B0029091B102A091B202B09135
:101D4000B3020196A11DB11D8093B0029093B10220
:101D5000A093B202B093B302BF91AF919F918F91C4
:101D60003F912F910F900FBE0F901F90189526E86E
:101D7000230F0296A11DB11DD2CFEF92FF920F93B8
:101D80001F93CF93DF93F82E192FE62E042F81E0B7
:101D9000860F880F0E94FF0683E00E94FF06CF2D6A
:101DA000D12FEC0EFD2EF11CCE15DF05B9F007FF8B
:101DB00013C0FE0184910E94FF06182F80E00E944C
:101DC000FF06812321968111EFCFDF91CF911F91E3
:101DD0000F91FF90EF9008958881EDCF81E0F5CFCE
:101DE000EAECF6E01382128288EE93E0A0E0B0E025
:101DF00084839583A683B78381E491E09183808374
:101E00008FEF9FEF95878487EAE1F7E013821282D4
:101E100083E591E0918380830895CF93DF93CDB7DD
:101E2000DEB7C355D1090FB6F894DEBF0FBECDBFE4
:101E3000789484B5826084BD84B5816084BD85B5A5
:101E4000826085BD85B5816085BD80916E008160B1
:101E500080936E0010928100809181008260809357
:101E60008100809181008160809381008091800059
:101E700081608093800080919100826080939100C6
:101E800080919100816080939100809190008160A9
:101E9000809390008091C10084608093C100809104
:101EA000C10082608093C1008091C10081608093F5
:101EB000C1008091C30081608093C3008091C00005
:101EC00082608093C0008091C20081608093C200D4
:101ED00080917A00846080937A0080917A00826099
:101EE00080937A0080917A00816080937A0080915B
:101EF0007A00806880937A001092C9021092B90229
:101F00001092BB028091D70081608093D70080EA55
:101F10008093D80089B5806189BD89B5826089BD0B
:101F200009B400FEFDCF61E070E080E090E00E9427
:101F3000B6078091D8008F7C80618093D800809113
:101F4000E000807F8093E0008091E1008E7E8093AE
:101F5000E1008DE08093E200559A209A64EF71E0F1
:101F600080E090E00E94B60781EC80937C0085B110
:101F7000806F85B984B1877E84B984B1876E84B956
:101F80005E9A5F988AB1806D8AB9769A6E9881B3AD
:101F9000806F81BB899880B38D7080BB80E58CBDDC
:101FA00081E08DBD85E090E00E949D085F9A85E00C
:101FB00090E00E949D085E985C98E5EFF6E082E074
:101FC00097E024912EBD00000DB407FEFDCF3196A1
:101FD0008E179F07B1F75C9A81E880936400809127
:101FE00065008160809365000E94C00880E80E94BF
:101FF000B50802E010E08823A9F05C9885EA8EBD60
:1020000000000DB407FEFDCF5C9A2E982F982D98F6
:102010008091640080628093640081E083BF889532
:1020200013BEFCCF84E00E94B508882309F440C0A9
:102030002D9884E80E94B5088823C1F00E949B086F
:1020400088EC90E00E949D082F981A8309836FEF17
:10205000CE0101960E94800B84EF91E00E949D08C2
:102060002F9A84E80E94B5088111FBCF84E10E9479
:10207000B5088823C1F00E949B0888EC90E00E947C
:102080009D082E981A83098360E0CE0101960E9474
:10209000800B84EF91E00E949D082E9A84E10E94BB
:1020A000B5088111FBCF88EC90E00E949D08BACF63
:1020B0000E949B0882E090E00E947E0B882309F436
:1020C00064C03E9A3F9A81E090E00E947E0B282FE8
:1020D0002470722E81FF13C021112E9801EF1FEF83
:1020E00068E0E62EF12C78E5672E80E40E94B508C2
:1020F000882309F44DC02E9A2F9A0E949B0882E3F0
:1021000090E00E949D080E94A2088111F8CF80E112
:10211000809300018EE290E00E94852189838FE206
:1021200090E00E9485218A8389819A8187349D4429
:1021300009F0F1C080E6E82E81E0F82E00E310E01F
:10214000C8010E948521D7018D937D010F5F1F4F2C
:102150000834B1E01B07A1F78FB7F8944091AC02A7
:102160005091AD026091AE027091AF028FBF10919D
:102170005E01112309F41AC110925E0180E090E023
:10218000892B51F30E940000E7CF3E983F989BCFE8
:10219000772029F00430110511F42E9A2F9881E050
:1021A0000E942006980117FF04C022273327201B16
:1021B000310B27703327C80117FD079653E095951B
:1021C00087955A95E1F717FF05C00197A701421BB4
:1021D000530B9A01BC017695762F66277795679504
:1021E00066537D4FB0E0A0E02701421A530A8E3FAC
:1021F0005FEF950709F43FC06A9E50016B9EB00CDB
:10220000112450E040E0F501EB5BF94F5F014B0119
:10221000F0E88F0E911C8F3F980791F0F501E40FC5
:10222000F51FE4916B01C40ED51EF0E01F01022ED4
:1022300001C0220C0A94EAF7F60134882328248A84
:102240002115310599F0F501E40FF51FE4916401C2
:10225000C40ED51EF0E01F01042C02C03594279453
:102260000A94E2F7F60134882328248A4F5F5F4FEF
:102270004835510581F6019660587F4F119709F056
:1022800047C00E94C0088FE090E00E949D080F5F49
:102290001F4F0931110509F028CF772011F02F9A2F
:1022A0002D9880E991E00E949D080E949B0881E0A2
:1022B00090E00E947E0B80FF22CF8AE090E00E9497
:1022C0007E0B9FEF980F9E3F08F019CF22E330E07E
:1022D0003093A4022093A30228E330E03093A602B7
:1022E0002093A5020BE010E0682F8AE197E00E949E
:1022F0009C09C8010E947E0B0F5F1F4F0131110521
:1023000099F70E94C00888EE93E00E949D08F7CEDE
:10231000A1E0B0E06CCF10E6212E11E0312EF12CBF
:10232000E12C08E1802E05E1902EA12CB12CB2E029
:10233000CB2EB7E0DB2E2401350110E000E0F701E1
:10234000E05AFE4FF9AFE8AF44E050E0B60188AD87
:1023500099AD800F911F0E947C21F101E00FF11FC8
:102360004482558266827782F4E0CF0ED11C28E544
:10237000420E22E0521E611C711C085F1F4F083282
:10238000110511F74CE2840E41E0941EA11CB11C12
:1023900058E2E50EF11C88E2280E311C98E1E9169E
:1023A00091E0F90621F60E94990BD6CE80915F014B
:1023B000A42FA81B8A2F90910001A91748F48F5FC2
:1023C000891708F0DBCE81E083BF889513BED6CE97
:1023D00081E080935E0140935F0180915C01909168
:1023E0005D01019690935D0180935C018091A8024C
:1023F0008093A7020E94A2088093A802EAECF2E070
:1024000011111FEF00241193119311931193039451
:10241000D1F71092A6021092A5021092A402109277
:10242000A302E091A902F091AA02E930F10508F0B7
:10243000A3C0E35EFD4E0C9403252612BF123E138B
:10244000C3133D14C415591F751F032188E00E9452
:10245000AA08811119C084E00E94AA08811114C041
:1024600080E80E94AA0881110FC080E10E94AA089A
:1024700081110AC080E20E94AA08811105C080E48F
:102480000E94AA08882341F01092A20281E090E005
:102490009093AA028093A90210E000E070E060E04F
:1024A000C8010E9465097801B2E0EB0EF11C62E000
:1024B00070E0C7010E9465096CE370E0C8010E94EA
:1024C00065096EE370E0C7010E9465090C5F1F4F4C
:1024D0000038110519F710E000E0B80190E080E045
:1024E0000E9465097801E2E0EE0EF11CB70182E07E
:1024F00090E00E946509B8018CE790E00E946509B0
:10250000B7018EE790E00E9465090C5F1F4F003411
:10251000110519F782E080931B018AE090E0909307
:10252000A4028093A3029093A6028093A5028BE657
:102530009BE00E94430A86E190E09093A40280937E
:10254000A3028CE190E09093A6028093A50283E61B
:102550009BE00E94430A81E080931B018091A102CD
:102560008F5F8093A1026EE10E94F72442E55BE059
:1025700060E370E080FF58C00E94C008FFCD80E893
:102580000E94AA08882339F08091A202882319F0BA
:1025900081508093A20280E10E94AA08882339F02A
:1025A0008091A202823018F48F5F8093A20288E0AB
:1025B0000E94AA081091A202882371F0111139C05B
:1025C0001092A00210929F0282E090E09093AA02E3
:1025D0008093A90210929E0246E45BE068E070E0FE
:1025E00086E290E00E94430B4DE35BE068E170E01F
:1025F00088E290E00E94430B44E35BE064E270E019
:1026000088E290E00E94430B47E25BE060E370E009
:1026100088E290E00E94430BFCE01F9FB001112470
:10262000685E7F4F45E25BE08EE190E00E94430BE5
:10263000A3CF1130A9F481E090E09093A0028093A1
:102640009F0210931A0110929D0210929C02109208
:102650009B0284E090E09093AA028093A902BCCFF1
:10266000123009F0B9CF82E090E09093A0028093FD
:102670009F0210929A0283E090E0EDCF80E80E94E2
:10268000AA0810919E02882349F0E12FF0E0EA5E4B
:10269000FE4F808181508134F4F0808380E10E947C
:1026A000AA08882349F0E12FF0E0EA5EFE4F80811E
:1026B0008F5F8B3594F4808388E00E94AA0888237A
:1026C00071F01F5F10939E02133048F010929D022C
:1026D00084E090E097C18AE5E0CF81E4ECCF84E02C
:1026E0000E94AA08882339F080919E02882319F05D
:1026F000815080939E0246E15BE06EE070E082E2F2
:1027000090E00E94430BF6E1EF2EF1E0FF2EC12C8A
:1027100004E310E0AFE0BA2ED7014D917D016EE1E8
:1027200070E0C8010E94DC0AD090A10280919E0254
:10273000C81217C08D2D6B2D0E94F72480FD11C08B
:10274000F801E653FD4FDF01BE5F8C9180628C93F0
:1027500011968C9180628C93EE5FFD4F8081806238
:102760008083C394065F1F4FB3E0CB12D5CF4FEFEA
:102770005AE062E370E086E190E00E94430BD3945C
:10278000D092A102F9CE80E80E94AA08882339F0ED
:1027900080919A02882319F0815080939A0280E1F7
:1027A0000E94AA08882339F080919A02863018F492
:1027B0008F5F80939A0288E00E94AA08D0909A02C4
:1027C000882341F0D0929D0284E090E09093AA0289
:1027D0008093A90284E00E94AA08882331F081E056
:1027E00090E09093AA028093A90242EF5AE064E03D
:1027F00070E086E290E00E94430B1D2DE4E0DE16BF
:1028000008F414E01450012F133008F002E00B5FBD
:1028100090E1E92EF12C23E4C22E3FE4B32E45E5EE
:10282000A42E52E5952E63E5862E75E4772EE0E220
:102830006E2E101708F0A0CEC982BA82AB829C829D
:102840008D827E826F8281E3810F888719861D11B8
:1028500007C040EF5AE0B70180E290E00E94430BCE
:10286000AE014F5F5F4FB7018AE290E00E945F0BBD
:102870001F5FF9E0EF0EF11CDCCF88E00E94AA0890
:1028800010919D0281111AC084E00E94AA08811152
:1028900015C080E80E94AA08811110C080E10E9442
:1028A000AA0881110BC080E20E94AA08811106C00B
:1028B00080E40E94AA08882309F40EC181E0809375
:1028C000150110929902109298021092970210929C
:1028D0009302109294021092950210929602109216
:1028E00092021092910210928D0210928E0210921A
:1028F0008F02109290021092890210928A02109216
:102900008B0210928C021092850210928602109215
:10291000870210928802173008F072C0E12FF0E0B1
:10292000EC56FB4E0C9403259B14B914C1140715E7
:10293000251543155E1589E89AE09093140180935C
:10294000130180E18093120188E2809311019AE2E1
:102950009093100180930F018FE380930E0182E327
:1029600080930D019CE290930C0180930B0189E30D
:1029700025C081E29AE090931401809313018AE1CB
:10298000E1CF89ED99E0909314018093130182E1E6
:102990008093120182E38093110190E390931001E0
:1029A00080930F018FE380930E0180E480930D01EB
:1029B00091E190930C0180930B018EE280930A01C8
:1029C00080E090E0A0EAB1E48093060190930701D3
:1029D000A0930801B093090180E090E0A0E5B2E483
:1029E0008093020190930301A0930401B093050129
:1029F000109281021092820210928302109284023D
:102A000085E090E09093AA028093A902B5CD85E875
:102A100099E0909314018093130185E18093120152
:102A200088E2809311019DE29093100180930F0141
:102A30008FE380930E0190E590930D019AE29093BD
:102A40000C0190E490930B01B9CF89E199E0909348
:102A50001401809313018BE18093120188E280932B
:102A600011019DE29093100180930F018FE38093F9
:102A70000E0180E480930D0110920C0180E7809399
:102A80000B0189E19BCF85EC98E090931401809332
:102A9000130185E18093120188E2809311019DE288
:102AA0009093100180930F018FE380930E0190E4C7
:102AB00090930D012AE220930C01C4CF81E398E0AA
:102AC000909314018093130185E28093120188E2B0
:102AD000809311019DE23CCF83E489838FE48A8354
:102AE00085E58B8302E5F02EFC8283E58D8385E40A
:102AF000E82EEE8200E20F831F5C18878FE2898741
:102B000087E38A871B86AE014F5F5F4F60E170E00D
:102B100088E290E00E945F0B80919F029091A0025A
:102B20000197C9F480E58D8B8CE48E8B81E48F8BCB
:102B300089E5888FE98EFA8E0B8F80911A01805D6E
:102B40008C8F1D8EAE014B5E5F4F6CE170E08EE2AC
:102B500090E00E945F0B4AED5AE06CE270E084E185
:102B600090E00E94430B8091A1028F5F8093A102AD
:102B70006EE10E94F72480FDFFCC49EC5AE068E347
:102B800070E08AE190E052CD84E00E94B508082F01
:102B900080E80E94B508182F88E00E94B508982E9A
:102BA00080919802811108C088E00E94AA088823B9
:102BB00019F081E080939802A0909802B09097025B
:102BC000AA2009F468C4B11069C48091930290915D
:102BD0009402A0919502B09196020196A11DB11D9B
:102BE0008093930290939402A0939502B0939602DF
:102BF000002381F18091780281112CC02AE939E902
:102C000049E55FE36091890270918A0280918B02AD
:102C100090918C020E94EC236093890270938A0247
:102C200080938B0290938C022AE939E949E55FE3AE
:102C3000609185027091860280918702909188024E
:102C40000E94EC2360938502709386028093870232
:102C50009093880200937802B2E4CB2EB0E6DB2E8C
:102C6000B5EEEB2EBCE3FB2E011108C0A6EACA2E7E
:102C7000ABE9DA2EA4E4EA2EACE3FA2E80E20E945D
:102C8000B5088823A1F0A701960160918D0270918B
:102C90008E0280918F02909190020E94D7216093C2
:102CA0008D0270938E0280938F029093900280E445
:102CB0000E94B5088823A1F0A701960160918D02BA
:102CC00070918E0280918F02909190020E94D82183
:102CD00060938D0270938E0280938F029093900286
:102CE000FAE9CF2EF9E9DF2EED2CFDE3FF2E0111DD
:102CF00008C0ECEECE2EE1E5DE2EE8EBEE2EEDE3A5
:102D0000FE2EA701960160918D0270918E02809136
:102D10008F02909190020E94E723181644F4C0920B
:102D20008D02D0928E02E0928F02F0929002F7FA1A
:102D3000F094F7F8F09420918D0230918E0240913A
:102D40008F0250919002C701B6010E94E723181626
:102D500044F4C0928D02D0928E02E0928F02F092E3
:102D6000900240908D0250908E0260908F02709081
:102D70009002209181023091820240918302509111
:102D80008402C301B2010E94D8216B017C01C09270
:102D90008102D0928202E0928302F092840220E0CB
:102DA00030E040E45FE3002391F080E20E94B50848
:102DB000811109C080E40E94B50826E636E646E2A5
:102DC0005FE3882321F02DEC3CEC4CE45FE3C3018E
:102DD000B2010E94EC2360938D0270938E02809367
:102DE0008F0290939002992009F4FFC3AA20F1F179
:102DF000B1103CC0C701B6010E9449222DEC3CEC49
:102E00004CE45DE30E94EC239B01AC0160918902DC
:102E100070918A0280918B0290918C020E94D8213D
:102E20006093890270938A0280938B0290938C0244
:102E3000C701B6010E9459242DEC3CEC4CE45DE343
:102E40000E94EC239B01AC01609185027091860287
:102E500080918702909188020E94D8216093850218
:102E600070938602809387029093880280E10E948B
:102E7000B508882361F12AE939E949E55FE3609102
:102E8000890270918A0280918B0290918C020E943B
:102E9000EC236093890270938A0280938B02909353
:102EA0008C022AE939E949E55FE360918502709176
:102EB000860280918702909188020E94EC236093A1
:102EC00085027093860280938702909388024090D7
:102ED000890250908A0260908B0270908C028090E0
:102EE000850290908602A0908702B090880200230D
:102EF00009F4B8C32EEE3CE74FE75FE3C301B2012C
:102F00000E94EC236093890270938A0280938B0263
:102F100090938C022EEE3CE74FE75FE3C501B401CE
:102F20000E94EC236093850270938602809387024F
:102F3000909388024090890250908A0260908B02A0
:102F400070908C028091850290918602A0918702F8
:102F5000B091880288AF99AFAAAFBBAFA30192012D
:102F6000C301B2010E94EC236B017C0128AD39AD95
:102F70004AAD5BADCA01B9010E94EC239B01AC01D3
:102F8000C701B6010E94D8210E9467244B015C0151
:102F9000C12CD12CE12C5FE3F52E111106C0C12C00
:102FA000D12C40E8E42E4FE3F42EA7019601C50191
:102FB000B4010E94E723181634F5A5019401C3015A
:102FC000B2010E944E22A70196010E94EC23609359
:102FD000890270938A0280938B0290938C02A501E0
:102FE000940168AD79AD8AAD9BAD0E944E22A701D8
:102FF00096010E94EC236093850270938602809371
:103000008702909388028091060190910701A09118
:103010000801B091090188AF99AFAAAFBBAF809109
:10302000020190910301A0910401B0910501609605
:103030008CAF9DAFAEAFBFAF609728AD39AD4AAD95
:103040005BAD6091890270918A0280918B029091B0
:103050008C020E94D821609306017093070180932F
:1030600008019093090160962CAD3DAD4EAD5FAD6A
:10307000609760918502709186028091870290919D
:1030800088020E94D821609302017093030180930B
:10309000040190930501212C80911201281608F05B
:1030A000C6C3A4E02A9EC00111246091130170914F
:1030B0001401680F791F44E050E0CE0101960E9490
:1030C0007C218091060190910701A0910801B091A7
:1030D000090128968CAF9DAFAEAFBFAF289709818D
:1030E000602F002E000C770B880B990B0E94F822A2
:1030F0002B013C018091020190910301A0910401F8
:10310000B09105012C968CAF9DAFAEAFBFAF2C97A1
:103110001A81612F012E000C770B880B990B0E94EE
:10312000F8226B017C013B80632D032C000C770B94
:10313000601B710907FD7395072E000C880B990B16
:103140000E94F8226CAF7DAF8EAF9FAF0C81602FD5
:10315000002E000C770B611B710917FD7395072E6C
:10316000000C880B990B0E94F82224966CAF7DAF5F
:103170008EAF9FAF24972CAD3DAD4EAD5FADCA0174
:10318000B9010E94EC234B015C0124962CAD3DADAE
:103190004EAD5FAD2497CA01B9010E94EC239B019B
:1031A000AC01C501B4010E94D8214B015C0120E0B3
:1031B00030E0A9010E944422882309F45CC0A301E5
:1031C000920128966CAD7DAD8EAD9FAD28970E9483
:1031D000D7212CAD3DAD4EAD5FAD0E94EC23649682
:1031E0006CAF7DAF8EAF9FAF6497A70196012C9611
:1031F0006CAD7DAD8EAD9FAD2C970E94D7212496EE
:103200002CAD3DAD4EAD5FAD24970E94EC239B01EC
:10321000AC0164966CAD7DAD8EAD9FAD64970E94A0
:10322000D821A50194010E944E224B015C0120E0AF
:1032300030E0A9010E94442287FD1DC020E030E05B
:1032400040E85FE3C501B4010E94E72318160CF0C3
:10325000CDC2632D330C770B880B990B0E94F8229B
:103260002B013C01602F000F770B880B990B0E94FC
:10327000F8226B017C01A301920128966CAD7DAD13
:103280008EAD9FAD28970E94D7214B015C01A7010D
:1032900096012C966CAD7DAD8EAD9FAD2C970E94A6
:1032A000D7212B013C01A5019401C501B4010E9465
:1032B000EC236B017C01A3019201C301B2010E94C6
:1032C000EC239B01AC01C701B6010E94D8216B0120
:1032D0007C0120E030E040E151E40E94442287FF7D
:1032E000D8C027E137EB41ED58E3C701B6010E9492
:1032F000E72318160CF0CDC0C701B6010E94672461
:103300006B017C01AC019B01C501B4010E944E22FE
:103310004B015C01A7019601C301B2010E944E223C
:103320002B013C01A701960160E070E080E490E48D
:103330000E94D7216B017C01AC019B01C501B40146
:103340000E94EC2328962CAD3DAD4EAD5FAD289785
:103350000E94D821609306017093070180930801B1
:1033600090930901A7019601C301B2010E94EC23C9
:103370002C962CAD3DAD4EAD5FAD2C970E94D82163
:1033800060930201709303018093040190930501FF
:103390008091890290918A02A0918B02B0918C0257
:1033A0008CAF9DAFAEAFBFAF80918502909186028A
:1033B000A0918702B091880224968CAF9DAFAEAFEA
:1033C000BFAF24972CAD3DAD4EAD5FADC501B4018F
:1033D0000E94EC236B017C0124962CAD3DAD4EADDB
:1033E0005FAD2497C301B2010E94EC239B01AC01A5
:1033F000C701B6010E94D8216B017C0120E030E0BA
:10340000A9010E94442287FF44C023E333E343EB36
:103410005FE3C701B6010E94EC236B017C01AC01A4
:103420009B01C501B4010E94EC239B01AC016CAD72
:103430007DAD8EAD9FAD0E94D7212AE939E949E1E2
:103440005FE30E94EC236093890270938A02809369
:103450008B0290938C02A7019601C301B2010E94D6
:10346000EC239B01AC0124966CAD7DAD8EAD9FAD80
:1034700024970E94D7212AE939E949E15FE30E94B4
:10348000EC23609385027093860280938702909369
:103490008802239401CEBB2009F4AACB809191022B
:1034A00090919202019690939202809391028837B4
:1034B000910508F49DCBC0909302D0909402E090C7
:1034C0009502F090960280919F029091A002019740
:1034D000B9F580911A01813059F4C0927D02D092E1
:1034E0007E02E0927F02F092800286E090E08ACA3B
:1034F000C0927902D0927A02E0927B02F0927C0232
:1035000080917D0290917E02A0917F02B091800215
:103510008C159D05AE05BF0540F480919C028F5F20
:1035200080939C0287E090E06DCAC816D906EA062F
:10353000FB06C0F780919B028F5F80939B02F2CFC6
:103540008FEF8093010180919D02482F50E0A8E207
:103550008A9FC0011124805A9E4FFC0130E020E078
:10356000622F84809580A680B780C814D904EA04AD
:10357000FB0498F574E0089767175CF418E0FC0109
:10358000B096DC01989601900D921A95E1F7715072
:10359000F2CF85E0849FF001859FF00D1124E20FAA
:1035A000F31F13E0EE0FFF1F1A95E1F7E05AFE4FED
:1035B0008091160180838091170181838091180189
:1035C00082831382C482D582E682F78260930101EE
:1035D0000E94990B1092A102A5CF2F5F3F4F389602
:1035E0002530310509F0BCCFF5CF112309F43ECCCD
:1035F000AA2009F43BCCB11039CCC701B6010E9416
:1036000049222FE832EC45EF5CE30E94EC239B015A
:10361000AC016091890270918A0280918B02909135
:103620008C020E94D7216093890270938A02809352
:103630008B0290938C02C701B6010E9459242FE897
:1036400032EC45EF5CE30E94EC239B01AC016091FE
:1036500085027091860280918702909188020E9473
:10366000D721FCCBA3019201C301B2010E94EC233C
:1036700068AF79AF8AAF9BAFA5019401C501B401D2
:103680000E94EC239B01AC0168AD79AD8AAD9BAD86
:103690000E94D8210E94672468AF79AF8AAF9BAFA0
:1036A0002FE832EC45E75FE3C301B2010E94EC234F
:1036B0002B013C012FE832EC45E75FE3C501B40183
:1036C0000E94EC2360966CAF7DAF8EAF9FAF60978A
:1036D000C701B6010E9449224B015C01C701B60136
:1036E0000E9459246CAF7DAF8EAF9FAFA5019401AE
:1036F000C301B2010E94EC236B017C012CAD3DADF6
:103700004EAD5FAD60966CAD7DAD8EAD9FAD6097FB
:103710000E94EC239B01AC01C701B6010E94D82195
:1037200020E030E0A9010E94E723C12CD12C70E8F1
:10373000E72E7FE3F72E87FF06C0C12CD12C60E86F
:10374000E62E6FEBF62EA501940168AD79AD8AAD3A
:103750009BAD0E94EC23A70196010E94EC232FE869
:1037600032EC45E75CE30E94EC234B015C0126EF61
:1037700038E24CE75FE3C301B2010E94EC239B01F6
:10378000AC01C501B4010E94D821609389027093F5
:103790008A0280938B0290938C022CAD3DAD4EAD8E
:1037A0005FAD68AD79AD8AAD9BAD0E94EC23A701FA
:1037B00096010E94EC232FE832EC45E75CE30E947F
:1037C000EC236B017C0126EF38E24CE75FE3609667
:1037D0006CAD7DAD8EAD9FAD60970E94EC239B01DB
:1037E000AC01C701B6010E94D8219CCBA501940170
:1037F0006CAD7DAD8EAD9FAD0E94EC239B01AC0105
:10380000C301B2010E94D8212B013C01A501940102
:1038100024966CAD7DAD8EAD9FAD24970E94EC23B8
:103820009B01AC01C701B6010E94D82122CD809135
:103830009802882309F447C280919702811143C2FC
:103840008091990281111DC160910C01062E000C1E
:10385000770B880B990B0E94F8226B017C01609119
:103860000D01062E000C770B880B990B0E94F82295
:1038700024966CAF7DAF8EAF9FAF249760910A0105
:10388000062E000C770B880B990B0E94F822A701DB
:1038900096010E94D7214B015C0128AD39AD4AAD9C
:1038A0005BAD6091060170910701809108019091D4
:1038B00009010E94D72128966CAF7DAF8EAF9FAFD4
:1038C000289760910B01062E000C770B880B990B43
:1038D0000E94F82224962CAD3DAD4EAD5FAD2497ED
:1038E0000E94D7212B013C0160962CAD3DAD4EAD21
:1038F0005FAD6097609102017091030180910401B6
:10390000909105010E94D7212C966CAF7DAF8EAFB0
:103910009FAF2C9728962CAD3DAD4EAD5FAD28974F
:10392000C501B4010E94EC236CAF7DAF8EAF9FAF99
:103930002C962CAD3DAD4EAD5FAD2C97C301B201C1
:103940000E94EC239B01AC016CAD7DAD8EAD9FADB3
:103950000E94D7216CAF7DAF8EAF9FAF20E030E0EB
:10396000A9010E944422882309F48BC0A701960173
:1039700060966CAD7DAD8EAD9FAD60970E94D721F6
:103980006B017C0124962CAD3DAD4EAD5FAD24970F
:1039900068AD79AD8AAD9BAD0E94D72124966CAFFE
:1039A0007DAF8EAF9FAF2497A7019601C301B201EF
:1039B0000E94EC232B013C0124962CAD3DAD4EAD75
:1039C0005FAD2497C501B4010E94EC239B01AC01BB
:1039D000C301B2010E94D7212CAD3DAD4EAD5FAD0C
:1039E0000E944E224B015C0120E030E0A9010E94C0
:1039F000E72387FD46C020E030E040E85FE3C501F3
:103A0000B4010E9444221816E4F1A70196012896F9
:103A10006CAD7DAD8EAD9FAD28970E94EC236B0100
:103A20007C0124962CAD3DAD4EAD5FAD24972C9618
:103A30006CAD7DAD8EAD9FAD2C970E94EC239B01AC
:103A4000AC01C701B6010E94D7212CAD3DAD4EADF2
:103A50005FAD0E944E226B017C0120E030E0A901A5
:103A60000E94E72387FD0DC020E030E040E85FE3DF
:103A7000C701B6010E94442218161CF081E0809311
:103A8000990280919902882309F41DC16091100167
:103A9000062E000C770B880B990B0E94F8224B0125
:103AA0005C0160911101062E000C770B880B990BBD
:103AB0000E94F8226CAF7DAF8EAF9FAF60910E0178
:103AC000062E000C770B880B990B0E94F822A5019B
:103AD00094010E94D72124966CAF7DAF8EAF9FAF2B
:103AE000249728AD39AD4AAD5BAD60910601709168
:103AF000070180910801909109010E94D721289621
:103B00006CAF7DAF8EAF9FAF289760910F01062EEF
:103B1000000C770B880B990B0E94F8222CAD3DAD61
:103B20004EAD5FAD0E94D7212B013C0160962CADBC
:103B30003DAD4EAD5FAD60976091020170910301A4
:103B400080910401909105010E94D7212C966CAFC1
:103B50007DAF8EAF9FAF2C9728962CAD3DAD4EAD6F
:103B60005FAD289724966CAD7DAD8EAD9FAD24974B
:103B70000E94EC236B017C012C962CAD3DAD4EAD2B
:103B80005FAD2C97C301B2010E94EC239B01AC01F5
:103B9000C701B6010E94D7216B017C0120E030E013
:103BA000A9010E944422882309F48DC0A501940133
:103BB00060966CAD7DAD8EAD9FAD60970E94D721B4
:103BC0004B015C012CAD3DAD4EAD5FAD68AD79AD47
:103BD0008AAD9BAD0E94D72168AF79AF8AAF9BAF0A
:103BE000A5019401C301B2010E94EC232B013C0109
:103BF00028AD39AD4AAD5BAD24966CAD7DAD8EADD3
:103C00009FAD24970E94EC239B01AC01C301B2013C
:103C10000E94D721A70196010E944E222B013C0150
:103C200020E030E0A9010E94E72387FD4CC020E09E
:103C300030E040E85FE3C301B2010E94442218165D
:103C40000CF441C0A501940128966CAD7DAD8EADFC
:103C50009FAD28970E94EC234B015C0128AD39AD44
:103C60004AAD5BAD2C966CAD7DAD8EAD9FAD2C9706
:103C70000E94EC239B01AC01C501B4010E94D72135
:103C8000A70196010E944E226B017C0120E030E0EA
:103C9000A9010E94E72387FD16C020E030E040E83C
:103CA0005FE3C701B6010E944422181664F0109227
:103CB0009902809115018F5F80931501863018F06D
:103CC00081E08093970210E080911201181720F58F
:103CD000A4E01A9FC0011124609113017091140196
:103CE000680F791F44E050E0CE0101960E947C21CC
:103CF0002C81022E000C330B4B81042E000C550B33
:103D00006A81062E000C770B8981082E000C990B16
:103D10000E94E1081F5FD8CF20910E01022E000CF7
:103D2000330B40910F01042E000C550B60911001D4
:103D3000062E000C770B80911101082E000C990BB8
:103D40000E94E10880919D023CE1E32EF12C04E207
:103D500010E0873078F490E0FC01E15DFE4F0081D7
:103D6000002E000C110B885D9E4FFC01E0800E2C94
:103D7000000CFF086091930270919402809195026B
:103D800090919602AE014B5E5F4F0E945E0A809159
:103D90009702882379F048E258E0B701C8010E94F1
:103DA000430BAE014B5E5F4FB701C80184960E9482
:103DB0005F0B0AC080919802811159C047E158E019
:103DC000B701C8010E94430B80908102909082024B
:103DD000A0908302B0908402C501B4010E944922E0
:103DE0002B013C01C0900601D0900701E090080132
:103DF000F0900901C501B4010E945924809002018C
:103E000090900301A0900401B090050120E030E003
:103E100040EC50E40E94EC23A50194010E94D821BB
:103E20000E94C02268AF79AF8AAF9BAF20E030E03C
:103E300040EC50E4C301B2010E94EC23A7019601BB
:103E40000E94D8210E94C0222B01C501B4010E940A
:103E5000C0224B01C701B6010E94C022CB0128AD90
:103E600039ADA201B4010E94E1080C94BC128CE4AB
:103E7000898381E48A8380E58B8380E28C839091BF
:103E80001501905D9D839FE29E8395E39F838887C4
:103E9000898786E0FE017596DE011A9601900D92E3
:103EA0008A95E1F7188AAE014F5F5F4FB701C801ED
:103EB0007ECF4EE058E064E170E080E390E00E9445
:103EC000430B4DEF57E06AE270E080E290E00E9421
:103ED000430B88E00E94AA08882311F40C94BC12BA
:103EE00082E080931A010C94681360909F02709096
:103EF000A0025090A102F1E06F16710409F0C0C059
:103F000000E50AAB91E3692E6BAA1AE31CAB809122
:103F10009C02805D8DAB1EAAAE014E5C5F4F62E0DD
:103F200070E082E090E00E945F0B0CA722E3722E0B
:103F30007DA61EA780919B02805D8FA718AAAE0167
:103F4000445D5F4F62E070E08CE690E00E945F0BA2
:103F500041EF57E06AE070E084E290E00E94430B9A
:103F600080907D0290907E02A0907F02B0908002AF
:103F7000AE014A5D5F4FC501B4010E945E0AC09068
:103F80007902D0907A02E0907B02F0907C02AE0140
:103F9000405E5F4FC701B6010E945E0A0D8B6E8ABC
:103FA0001F8B80E2888F96E0FE01B696DE0159965F
:103FB00001900D929A95E1F71F8E09837A821B83F7
:103FC0008C8386E0FE01B096DE01159601900D927D
:103FD0008A95E1F71B86AE014B5E5F4F66E170E0AC
:103FE00086E290E00E945F0BAE014F5F5F4F60E2A0
:103FF00070E086E290E00E945F0B852D6FE00E94EA
:10400000F72481708C149D04AE04BF0400F542EEC9
:1040100057E0882329F149EB57E068E370E08EE12F
:1040200090E00E94430B53945092A10288E00E94BA
:10403000AA08882311F40C94BC1280919D0286304A
:1040400008F0D4C08F5F80939D0281E04ACFC814EE
:10405000D904EA04FB0458F48111DDCF43ED57E0A5
:104060006CE270E082E290E00E94430BD4CF8111B9
:10407000D2CF49EC57E06CE270E08EE290E0F4CFF2
:1040800084E5898392E59A8381E48B8323E42C83FE
:104090008BE48D8380E28E8340909D0231E3340D6A
:1040A0003F83888788E4898739E43A8737E43B8708
:1040B0008C8783E58D872E872FE42F87988B95E457
:1040C000998B8A8B1B8AAE014F5F5F4F64E070E073
:1040D00088E190E00E945F0BE2E5F3E091E7915008
:1040E00031F08191DF01119788608C93F8CF28E23D
:1040F000429E50011124852D6FE00E94F7248170AB
:10410000382ED12CC12C0EE010E0F12CE12C8EE2E7
:10411000282EA501405A5E4F4A0181E38E0D88A3E7
:1041200029A21AA2AE01405E5F4FB80188E190E07B
:104130000E945F0BF501EC0DFD1DE05AFE4F6481FE
:10414000758186819781AE014B5E5F4F0E945E0A4A
:1041500080910101082E000C990BE816F90649F42C
:10416000311017C047EB57E0B8018EE090E00E9495
:10417000430BA4014C0D5D1DB8018AE290E00E9442
:104180005F0BAE014B5E5F4FB8018CE490E00E9484
:104190005F0B5FEFE51AF50A095F1F4F88E0C80E55
:1041A000D11C95E0E916F10409F0B7CF40EA57E0D9
:1041B00068E370E080E190E00E94430B53945092DA
:1041C000A10288E00E94AA088823A1F083E090E081
:1041D000A2E06A16710411F40C940215B5E0B4154E
:1041E00028F0439440929D020C94681388E090E07C
:1041F0000C94021584E00E94AA08882311F40C9400
:10420000BC120C94681380919F029091A0020197B8
:1042100009F063C04FE857E060E170E082E290E0AF
:104220000E94430B20E5298381E38A839AE39B83E1
:1042300080E28C8300919C0230E3300F3D838E83BB
:104240008F83288722E329879A878B8710919B0287
:1042500080E3810F8C871D86AE014F5F5F4F6CE15D
:1042600070E086E290E00E945F0B49E757E010178C
:1042700050F04DE457E068E270E082E290E0011710
:1042800030F443E657E068E270E086E190E00E9497
:10429000430B8091A1028F5F8093A1026EE10E9487
:1042A000F72480FD08C046E157E066E370E082E253
:1042B00090E00E94430B88E00E94AA08811107C089
:1042C00084E00E94AA08882311F40C94BC12109276
:1042D000AA021092A9020C94BC124FE257E064E1CA
:1042E00070E086E090E00E94430B43E257E06EE10D
:1042F00070E08AE290E0CBCFFB01DC0102C00590C8
:104300000D9241505040D8F70895F999FECF92BDD3
:1043100081BDF89A992780B50895262FF999FECF87
:104320001FBA92BD81BD20BD0FB6F894FA9AF99AD2
:104330000FBE019608950E94C821A59F900DB49FBD
:10434000900DA49F800D911D11240895A1E21A2EB5
:10435000AA1BBB1BFD010DC0AA1FBB1FEE1FFF1F29
:10436000A217B307E407F50720F0A21BB30BE40B79
:10437000F50B661F771F881F991F1A9469F76095C0
:104380007095809590959B01AC01BD01CF0108957A
:10439000A29FB001B39FC001A39F700D811D112486
:1043A000911DB29F700D811D1124911D08955058CB
:1043B000BB27AA270E94EF210C9499230E94602317
:1043C00038F00E94672320F039F49F3F19F426F457
:1043D0000C945D230EF4E095E7FB0C945723E92F32
:1043E0000E94BE2358F3BA17620773078407950724
:1043F00020F079F4A6F50C94E0230EF4E0950B2E52
:10440000BA2FA02D0B01B90190010C01CA01A00126
:104410001124FF27591B99F0593F50F4503E68F181
:104420001A16F040A22F232F342F4427585FF3CFC2
:10443000469537952795A795F0405395C9F77EF493
:104440001F16BA0B620B730B840BBAF09150A1F0DC
:10445000FF0FBB1F661F771F881FC2F70EC0BA0F62
:10446000621F731F841F48F4879577956795B795EA
:10447000F7959E3F08F0B0CF9395880F08F09927E5
:10448000EE0F9795879508950E94332308F481E0F5
:1044900008950E947023E3950C94AA230E9462223F
:1044A0000C9499230E94672358F00E94602340F0E7
:1044B00029F45F3F29F00C94572351110C94E12308
:1044C0000C945D230E94BE2368F39923B1F3552316
:1044D00091F3951B550BBB27AA2762177307840717
:1044E00038F09F5F5F4F220F331F441FAA1FA9F3AD
:1044F00035D00E2E3AF0E0E832D091505040E6959B
:10450000001CCAF72BD0FE2F29D0660F771F881FFB
:10451000BB1F261737074807AB07B0E809F0BB0BEE
:10452000802DBF01FF2793585F4F3AF09E3F510502
:1045300078F00C9457230C94E1235F3FE4F3983E0A
:10454000D4F3869577956795B795F7959F5FC9F7EB
:10455000880F911D9695879597F90895E1E0660F6C
:10456000771F881FBB1F621773078407BA0720F0E5
:10457000621B730B840BBA0BEE1F88F7E09508954E
:104580000E94C7226894B1110C94E12308950E94FF
:10459000C62388F09F5798F0B92F9927B751B0F0EC
:1045A000E1F0660F771F881F991F1AF0BA95C9F7B7
:1045B00014C0B13091F00E94E023B1E008950C9452
:1045C000E023672F782F8827B85F39F0B93FCCF305
:1045D000869577956795B395D9F73EF49095809534
:1045E000709561957F4F8F4F9F4F0895E89409C054
:1045F00097FB3EF490958095709561957F4F8F4F16
:104600009F4F9923A9F0F92F96E9BB279395F6952B
:10461000879577956795B795F111F8CFFAF4BB0FA9
:1046200011F460FF1BC06F5F7F4F8F4F9F4F16C00D
:10463000882311F096E911C0772321F09EE8872F97
:10464000762F05C0662371F096E8862F70E060E053
:104650002AF09A95660F771F881FDAF7880F9695CC
:10466000879597F90895990F0008550FAA0BE0E870
:10467000FEEF16161706E807F907C0F01216130624
:10468000E407F50798F0621B730B840B950B39F464
:104690000A2661F0232B242B252B21F408950A26CA
:1046A00009F4A140A6958FEF811D811D089597F90A
:1046B0009F6780E870E060E008959FEF80EC0895C8
:1046C00000240A94161617061806090608950024F1
:1046D0000A94121613061406050608950C945D2319
:1046E0000E94C623D8F3E894E0E0BB279F57F0F080
:1046F0002AED3FE049EC06C0EE0FBB0F661F771FA7
:10470000881F28F0B23A62077307840728F0B25A6C
:10471000620B730B840BE3959A9572F7803830F433
:104720009A95BB0F661F771F881FD2F790480C948D
:10473000A924092E0394000C11F4882352F0BB0F16
:1047400040F4BF2B11F460FF04C06F5F7F4F8F4FA9
:104750009F4F0895EF93E0FF07C0A2EA2AED3FE0E4
:1047600049EC5FEB0E94EF210E9499230F90039484
:1047700001FC9058ECEAF0E00C94BC2457FD9058F2
:10478000440F551F59F05F3F71F04795880F97FB15
:10479000991F61F09F3F79F08795089512161306CF
:1047A0001406551FF2CF4695F1DF08C016161706FE
:1047B0001806991FF1CF8695710561050894089533
:1047C000E894BB2766277727CB0197F908950E94C5
:1047D000332308F48FEF08950E94FF230C9499234C
:1047E0000E94602338F00E94672320F0952311F087
:1047F0000C9457230C945D2311240C94E1230E9404
:10480000BE2370F3959FC1F3950F50E0551F629F33
:10481000F001729FBB27F00DB11D639FAA27F00D19
:10482000B11DAA1F649F6627B00DA11D661F829F40
:104830002227B00DA11D621F739FB00DA11D621F25
:10484000839FA00D611D221F749F3327A00D611D42
:10485000231F849F600D211D822F762F6A2F112424
:104860009F5750409AF0F1F088234AF0EE0FFF1F57
:10487000BB1F661F771F881F91505040A9F79E3FAE
:10488000510580F00C9457230C94E1235F3FE4F32F
:10489000983ED4F3869577956795B795F795E79504
:1048A0009F5FC1F7FE2B880F911D9695879597F90D
:1048B00008959F930E9470230F9007FCEE5F0C9465
:1048C000AA2319F416F40C945D230C94A7240E94D7
:1048D000C623B8F39923C9F3B6F39F57550B87FF47
:1048E0000E94B5240024A0E640EA90018058569525
:1048F000979528F4805C660F771F881F20F0261795
:104900003707480730F4621B730B840B20293129C9
:104910004A2BA69517940794202531254A2758F746
:10492000660F771F881F20F026173707480730F4D7
:10493000620B730B840B200D311D411DA09581F777
:10494000B901842F9158880F9695879508959F3FB8
:1049500031F0915020F4879577956795B795880F3A
:10496000911D9695879597F9089591505040660F3F
:10497000771F881FD2F708959F938F937F936F932C
:10498000FF93EF939B01AC010E94EC23EF91FF9109
:104990000E94D0242F913F914F915F910C94EC2372
:1049A000DF93CF931F930F93FF92EF92DF927B01E0
:1049B0008C01689406C0DA2EEF010E94FF23FE01ED
:1049C000E894A5912591359145915591A6F3EF0174
:1049D0000E94EF21FE019701A801DA9469F7DF90A8
:1049E000EF90FF900F911F91CF91DF910895991B48
:1049F00079E004C0991F961708F0961B881F7A95D6
:104A0000C9F780950895EE0FFF1F0590F491E02DF2
:064A10000994F894FFCFA9
:104A160010FF00004041000080423F402A401643FC
:104A2600014310890A01414141000101FFFFFFFFD7
:104A360000E10000000000001E2200022100002606
:104A4600293C0722413C00C1808100000000000093
:104A5600007E06E9079F069406E506A306C1060042
:0C4A66000000009C096E087B0B7A0B001E
:00000001FF
